{
  "contractName": "SupplyChain",
  "abi": [
    {
      "inputs": [],
      "stateMutability": "nonpayable",
      "type": "constructor"
    },
    {
      "anonymous": false,
      "inputs": [
        {
          "indexed": true,
          "internalType": "uint256",
          "name": "id",
          "type": "uint256"
        },
        {
          "indexed": true,
          "internalType": "address",
          "name": "manufacturer",
          "type": "address"
        },
        {
          "indexed": true,
          "internalType": "address",
          "name": "distributor",
          "type": "address"
        }
      ],
      "name": "ProductAccepted",
      "type": "event"
    },
    {
      "anonymous": false,
      "inputs": [
        {
          "indexed": true,
          "internalType": "uint256",
          "name": "id",
          "type": "uint256"
        },
        {
          "indexed": true,
          "internalType": "address",
          "name": "distributor",
          "type": "address"
        }
      ],
      "name": "ProductRequested",
      "type": "event"
    },
    {
      "inputs": [],
      "name": "owner",
      "outputs": [
        {
          "internalType": "address",
          "name": "",
          "type": "address"
        }
      ],
      "stateMutability": "view",
      "type": "function",
      "constant": true
    },
    {
      "inputs": [],
      "name": "productCounter",
      "outputs": [
        {
          "internalType": "uint256",
          "name": "",
          "type": "uint256"
        }
      ],
      "stateMutability": "view",
      "type": "function",
      "constant": true
    },
    {
      "inputs": [
        {
          "internalType": "uint256",
          "name": "",
          "type": "uint256"
        }
      ],
      "name": "products",
      "outputs": [
        {
          "internalType": "uint256",
          "name": "id",
          "type": "uint256"
        },
        {
          "internalType": "string",
          "name": "name",
          "type": "string"
        },
        {
          "internalType": "address",
          "name": "manufacturer",
          "type": "address"
        },
        {
          "internalType": "address",
          "name": "distributor",
          "type": "address"
        },
        {
          "internalType": "bool",
          "name": "isAccepted",
          "type": "bool"
        }
      ],
      "stateMutability": "view",
      "type": "function",
      "constant": true
    },
    {
      "inputs": [
        {
          "internalType": "string",
          "name": "_name",
          "type": "string"
        }
      ],
      "name": "requestProduct",
      "outputs": [],
      "stateMutability": "nonpayable",
      "type": "function"
    },
    {
      "inputs": [
        {
          "internalType": "uint256",
          "name": "_productId",
          "type": "uint256"
        }
      ],
      "name": "acceptRequest",
      "outputs": [],
      "stateMutability": "nonpayable",
      "type": "function"
    }
  ],
  "bytecode": "0x6080604052600060015534801561001557600080fd5b50336000806101000a81548173ffffffffffffffffffffffffffffffffffffffff021916908373ffffffffffffffffffffffffffffffffffffffff160217905550610bef806100656000396000f3fe608060405234801561001057600080fd5b50600436106100575760003560e01c80631f16653b1461005c5780634ba1f0981461007a5780637acc0b20146100965780638da5cb5b146100ca578063ccd8740c146100e8575b600080fd5b610064610104565b604051610071919061090d565b60405180910390f35b610094600480360381019061008f91906107a3565b61010a565b005b6100b060048036038101906100ab91906107a3565b61036c565b6040516100c1959493929190610928565b60405180910390f35b6100d2610477565b6040516100df91906108b2565b60405180910390f35b61010260048036038101906100fd9190610762565b61049b565b005b60015481565b600073ffffffffffffffffffffffffffffffffffffffff166002600083815260200190815260200160002060030160009054906101000a900473ffffffffffffffffffffffffffffffffffffffff1673ffffffffffffffffffffffffffffffffffffffff1614156101b0576040517f08c379a00000000000000000000000000000000000000000000000000000000081526004016101a7906108cd565b60405180910390fd5b600073ffffffffffffffffffffffffffffffffffffffff166002600083815260200190815260200160002060020160009054906101000a900473ffffffffffffffffffffffffffffffffffffffff1673ffffffffffffffffffffffffffffffffffffffff1614610255576040517f08c379a000000000000000000000000000000000000000000000000000000000815260040161024c906108ed565b60405180910390fd5b336002600083815260200190815260200160002060020160006101000a81548173ffffffffffffffffffffffffffffffffffffffff021916908373ffffffffffffffffffffffffffffffffffffffff16021790555060016002600083815260200190815260200160002060030160146101000a81548160ff0219169083151502179055506002600082815260200190815260200160002060030160009054906101000a900473ffffffffffffffffffffffffffffffffffffffff1673ffffffffffffffffffffffffffffffffffffffff163373ffffffffffffffffffffffffffffffffffffffff16827e17e152abecc4fe8094387cb8a8c7722f7844f33578f77833ab058068de7f1c60405160405180910390a450565b600260205280600052604060002060009150905080600001549080600101805461039590610a89565b80601f01602080910402602001604051908101604052809291908181526020018280546103c190610a89565b801561040e5780601f106103e35761010080835404028352916020019161040e565b820191906000526020600020905b8154815290600101906020018083116103f157829003601f168201915b5050505050908060020160009054906101000a900473ffffffffffffffffffffffffffffffffffffffff16908060030160009054906101000a900473ffffffffffffffffffffffffffffffffffffffff16908060030160149054906101000a900460ff16905085565b60008054906101000a900473ffffffffffffffffffffffffffffffffffffffff1681565b600160008154809291906104ae90610abb565b91905055506040518060a001604052806001548152602001828152602001600073ffffffffffffffffffffffffffffffffffffffff1681526020013373ffffffffffffffffffffffffffffffffffffffff16815260200160001515815250600260006001548152602001908152602001600020600082015181600001556020820151816001019080519060200190610547929190610642565b5060408201518160020160006101000a81548173ffffffffffffffffffffffffffffffffffffffff021916908373ffffffffffffffffffffffffffffffffffffffff16021790555060608201518160030160006101000a81548173ffffffffffffffffffffffffffffffffffffffff021916908373ffffffffffffffffffffffffffffffffffffffff16021790555060808201518160030160146101000a81548160ff0219169083151502179055509050503373ffffffffffffffffffffffffffffffffffffffff166001547f64498bd5579fbae902000174f71f7bcca14d21ec1b4db02c2adfd42e9e2d4e0a60405160405180910390a350565b82805461064e90610a89565b90600052602060002090601f01602090048101928261067057600085556106b7565b82601f1061068957805160ff19168380011785556106b7565b828001600101855582156106b7579182015b828111156106b657825182559160200191906001019061069b565b5b5090506106c491906106c8565b5090565b5b808211156106e15760008160009055506001016106c9565b5090565b60006106f86106f3846109b3565b610982565b90508281526020810184848401111561071057600080fd5b61071b848285610a47565b509392505050565b600082601f83011261073457600080fd5b81356107448482602086016106e5565b91505092915050565b60008135905061075c81610ba2565b92915050565b60006020828403121561077457600080fd5b600082013567ffffffffffffffff81111561078e57600080fd5b61079a84828501610723565b91505092915050565b6000602082840312156107b557600080fd5b60006107c38482850161074d565b91505092915050565b6107d5816109ff565b82525050565b6107e481610a11565b82525050565b60006107f5826109e3565b6107ff81856109ee565b935061080f818560208601610a56565b61081881610b91565b840191505092915050565b6000610830601e836109ee565b91507f50726f64756374207265717565737420646f6573206e6f7420657869737400006000830152602082019050919050565b60006108706010836109ee565b91507f416c7265616479206163636570746564000000000000000000000000000000006000830152602082019050919050565b6108ac81610a3d565b82525050565b60006020820190506108c760008301846107cc565b92915050565b600060208201905081810360008301526108e681610823565b9050919050565b6000602082019050818103600083015261090681610863565b9050919050565b600060208201905061092260008301846108a3565b92915050565b600060a08201905061093d60008301886108a3565b818103602083015261094f81876107ea565b905061095e60408301866107cc565b61096b60608301856107cc565b61097860808301846107db565b9695505050505050565b6000604051905081810181811067ffffffffffffffff821117156109a9576109a8610b62565b5b8060405250919050565b600067ffffffffffffffff8211156109ce576109cd610b62565b5b601f19601f8301169050602081019050919050565b600081519050919050565b600082825260208201905092915050565b6000610a0a82610a1d565b9050919050565b60008115159050919050565b600073ffffffffffffffffffffffffffffffffffffffff82169050919050565b6000819050919050565b82818337600083830152505050565b60005b83811015610a74578082015181840152602081019050610a59565b83811115610a83576000848401525b50505050565b60006002820490506001821680610aa157607f821691505b60208210811415610ab557610ab4610b33565b5b50919050565b6000610ac682610a3d565b91507fffffffffffffffffffffffffffffffffffffffffffffffffffffffffffffffff821415610af957610af8610b04565b5b600182019050919050565b7f4e487b7100000000000000000000000000000000000000000000000000000000600052601160045260246000fd5b7f4e487b7100000000000000000000000000000000000000000000000000000000600052602260045260246000fd5b7f4e487b7100000000000000000000000000000000000000000000000000000000600052604160045260246000fd5b6000601f19601f8301169050919050565b610bab81610a3d565b8114610bb657600080fd5b5056fea26469706673582212203df20cf19f20eb7a754bd24570eed988a6475980d7af4561b17100105f48f5ec64736f6c63430008000033",
  "immutableReferences": {},
  "source": "// SPDX-License-Identifier: MIT\r\npragma solidity ^0.8.0;\r\n\r\ncontract SupplyChain {\r\n    address public owner;\r\n    \r\n    struct Product {\r\n        uint id;\r\n        string name;\r\n        address manufacturer;\r\n        address distributor;\r\n        bool isAccepted;\r\n    }\r\n\r\n    uint public productCounter = 0;\r\n    mapping(uint => Product) public products;\r\n    \r\n    event ProductRequested(uint indexed id, address indexed distributor);\r\n    event ProductAccepted(uint indexed id, address indexed manufacturer, address indexed distributor);\r\n\r\n    constructor() {\r\n        owner = msg.sender;\r\n    }\r\n\r\n    function requestProduct(string memory _name) public {\r\n        productCounter++;\r\n        products[productCounter] = Product(productCounter, _name, address(0), msg.sender, false);\r\n        emit ProductRequested(productCounter, msg.sender);\r\n    }\r\n\r\n    function acceptRequest(uint _productId) public {\r\n        require(products[_productId].distributor != address(0), \"Product request does not exist\");\r\n        require(products[_productId].manufacturer == address(0), \"Already accepted\");\r\n\r\n        products[_productId].manufacturer = msg.sender;\r\n        products[_productId].isAccepted = true;\r\n\r\n        emit ProductAccepted(_productId, msg.sender, products[_productId].distributor);\r\n    }\r\n}\r\n",
  "sourcePath": "D:\\Med-VerifyTest\\blockchain\\contracts\\SupplyChain.sol",
  "compiler": {
    "name": "solc",
    "version": "0.8.0+commit.c7dfd78e.Emscripten.clang"
  },
  "schemaVersion": "3.4.16",
  "updatedAt": "2025-03-04T11:21:01.245Z",
  "networkType": "ethereum",
  "devdoc": {
    "kind": "dev",
    "methods": {},
    "version": 1
  },
  "userdoc": {
    "kind": "user",
    "methods": {},
    "version": 1
  }
}